{
  "address": "0xaE778109BAfe1e62bEa36AF14eE00Ed437BBF2A7",
  "abi": [
    {
      "inputs": [],
      "stateMutability": "nonpayable",
      "type": "constructor"
    },
    {
      "inputs": [],
      "name": "InvalidToken",
      "type": "error"
    },
    {
      "inputs": [],
      "name": "ZeroAddress",
      "type": "error"
    },
    {
      "inputs": [],
      "name": "ZeroValue",
      "type": "error"
    },
    {
      "inputs": [
        {
          "internalType": "address",
          "name": "recipient",
          "type": "address"
        }
      ],
      "name": "transferEth",
      "outputs": [],
      "stateMutability": "payable",
      "type": "function"
    },
    {
      "inputs": [
        {
          "internalType": "address",
          "name": "token",
          "type": "address"
        },
        {
          "internalType": "address",
          "name": "recipient",
          "type": "address"
        },
        {
          "internalType": "uint256",
          "name": "value",
          "type": "uint256"
        }
      ],
      "name": "transferToken",
      "outputs": [],
      "stateMutability": "nonpayable",
      "type": "function"
    }
  ],
  "transactionHash": "0xba54b89ecd8a16818b525a287dbf4f6db49dd066417b39d601ab6e6809f984f9",
  "args": [],
  "numDeployments": 1,
  "solcInputHash": "bc6079aac9878d1fc99c3a22e1e90996",
  "bytecode": "0x6080806040523461001657610237908161001c8239f35b600080fdfe608060405260048036101561001357600080fd5b600090813560e01c806330df47af146101545763f5537ede1461003557600080fd5b346101505760607ffffffffffffffffffffffffffffffffffffffffffffffffffffffffffffffffc3601126101505761006c610202565b60243573ffffffffffffffffffffffffffffffffffffffff8116810361014c57813b156101255780153315176100fe57602092848093606493604051937f23b872dd0000000000000000000000000000000000000000000000000000000085523390850152602484015260443560448401525af13d15601f3d116001845114161716156100f65780f35b3d81803e3d90fd5b82847fd92e233d000000000000000000000000000000000000000000000000000000008152fd5b82847fc1ab6dc1000000000000000000000000000000000000000000000000000000008152fd5b8380fd5b5080fd5b509060207ffffffffffffffffffffffffffffffffffffffffffffffffffffffffffffffffc3601126101ff57610188610202565b9182156101d95734156101b35750808080809434905af1156101a75780f35b604051903d90823e3d90fd5b907f7c946ed7000000000000000000000000000000000000000000000000000000008152fd5b907fd92e233d000000000000000000000000000000000000000000000000000000008152fd5b80fd5b6004359073ffffffffffffffffffffffffffffffffffffffff8216820361022557565b600080fdfea164736f6c6343000811000a",
  "devdoc": {
    "kind": "dev",
    "methods": {},
    "version": 1
  },
  "userdoc": {
    "kind": "user",
    "methods": {},
    "version": 1
  },
  "storageLayout": {
    "storage": [],
    "types": null
  }
}